S00F00004275746F6E65312E7372656377
S11300000C942A000C9434000C9434000C943400A6
S11300100C9434000C9434000C9434000C9434008C
S11300200C9434000C9434000C9434000C9434007C
S11300300C9434000C9434000C9434000C9434006C
S11300400C9434000C9434000C9434000C9434005C
S11300500C94340011241FBECFE5D8E0DEBFCDBF21
S11300600E9436000C944D000C9400008FEF81BB6D
S113007088BB80E4B09907C082BBE3ECF9E0319718
S1130080F1F700C00000B199F5CF12BAE3ECF9E042
S11100903197F1F700C00000EDCFF894FFCFD8
S9030000FC
